:0A084200000102020303040405058F
:1002B800E4F513F512F511F510C203C200C202C22B
:1002C8000112041F7E067F008E238F24752B06756E
:1002D8002C1275210675221C752906752A4A752D5A
:1002E80006752E78EE54C070030203B975140075B4
:1002F80015808E168F17C3749A9FFF74069ECF249D
:1003080002CF3400FEE48F0F8E0EF50DF50CF50BC1
:10031800F50AF509F508AF0FAE0EAD0DAC0CAB0B39
:10032800AA0AA909A808C31208255033E517250BFE
:10033800F582E516350AF583E0FFE515250BF5820C
:10034800E514350AF583EFF0E50B2401F50BE435E8
:100358000AF50AE43509F509E43508F50880B78592
:10036800142385152474002480FF740634FFFEC30B
:10037800E52C9FF52CE52B9EF52BC3E5269FF5264E
:10038800E5259EF525C3E5289FF528E5279EF52751
:10039800C3E5229FF522E5219EF521C3E52A9FF5B5
:1003A8002AE5299EF529C3E52E9FF52EE52D9EF514
:1003B8002DD2E843D82090E668E04409F090E65C46
:1003C800E0443DF0D2AF90E680E020E105D204128F
:1003D80006D290E680E054F7F0538EF8C203120874
:1003E8006C300105120080C2013003F2120860501F
:1003F800EDC20312078020001690E682E030E70481
:10040800E020E1EF90E682E030E604E020E0E4124C
:07041800070112086280C712
:0B05F50090E50DE030E402C322D322A9
:1000800090E6B9E0700302013F1470030201BC2442
:10009000FE700302023F24FB700302013914700357
:1000A00002013314700302012714700302012D248E
:1000B0000560030202A412086440030202B090E645
:1000C000BBE024FE602714603824FD601114602713
:1000D00024067050E52390E6B3F0E524803C120539
:1000E000F5503EE52B90E6B3F0E52C802DE525900C
:1000F000E6B3F0E5268023E52790E6B3F0E5288017
:100100001990E6BAE0FF12072DAA06A9077B01EABB
:10011000494B600DEE90E6B3F0EF90E6B4F00202CA
:10012000B002029F02029F1208130202B01208548A
:100130000202B012084C0202B01208010202B01210
:10014000086640030202B090E6B8E0247F60151410
:10015000601924027063A200E43325E0FFA202E4E8
:10016000334F8041E490E740F0803F90E6BCE0549C
:100170007EFF7E00E0D394807C0040047D018002FD
:100180007D00EC4EFEED4F2442F58274083EF5836F
:10019000E493FF3395E0FEEF24A1FFEE34E68F8277
:1001A000F583E0540190E740F0E4A3F090E68AF094
:1001B00090E68B7402F00202B002029F12086840BF
:1001C000030202B090E6B8E024FE60162402600349
:1001D0000202B090E6BAE0B40105C2000202B00229
:1001E000029F90E6BAE0705590E6BCE0547EFF7E38
:1001F00000E0D394807C0040047D0180027D00EC0F
:100200004EFEED4F2442F58274083EF583E493FFE1
:100210003395E0FEEF24A1FFEE34E68F82F583E014
:1002200054FEF090E6BCE05480131313541FFFE01B
:10023000540F2F90E683F0E04420F080738060122A
:10024000086A506C90E6B8E024FE601A2402704FF1
:1002500090E6BAE0B40104D200805590E6BAE0B46A
:100260000202804C803990E6BCE0547EFF7E00E0C4
:10027000D394807C0040047D0180027D00EC4EFE22
:10028000ED4F2442F58274083EF583E493FF3395E5
:10029000E0FEEF24A1FFEE34E68F82F583800D901F
:1002A000E6A08008120758500790E6A0E04401F04D
:0702B00090E6A0E04480F09D
:0102B7002224
:0300330002085C64
:04085C0053D8EF324C
:10041F0090E600E054E74410F090E6017443F000DA
:10042F00000090E61274A0F0000000E490E613F0D4
:10043F0000000090E61474E0F0000000E490E61570
:10044F00F000000090E6047480F00000007402F0E9
:10045F000000007406F0000000E4F000000090E6D9
:10046F000274E6F000000090E60374DEF000000076
:10047F0090E670E0F0000000E490E609F000000064
:10048F0043B20F90E61804F00000007411F0000062
:10049F000090E61A7409F0000000E490E671F09005
:0B04AF00E672F0F5B475B6FFD28022B3
:01086C002269
:02086000D322A1
:02086200D3229F
:02086400D3229D
:08084C0090E6BAE0F51BD3228F
:1008010090E740E51BF0E490E68AF090E68B04F077
:02081100D322F0
:0808540090E6BAE0F51AD32288
:1008130090E740E51AF0E490E68AF090E68B04F066
:02082300D322DE
:02086600D3229B
:02086800D32299
:02086A00D32297
:1007580090E6B9E0242F600D04701990E604E0FFDC
:10076800430780800890E604E0FF53077F000000FD
:07077800EFF08002D322C361
:01077F002257
:1007A500C0E0C083C082D2015391EF90E65D740131
:0807B500F0D082D083D0E032C5
:1007D500C0E0C083C0825391EF90E65D7404F0D011
:0607E50082D083D0E03257
:1007EB00C0E0C083C0825391EF90E65D7402F0D0FD
:0607FB0082D083D0E03241
:10069C00C0E0C083C082852925852A2685268285CF
:1006AC002583A37402F0852127852228852882853D
:1006BC002783A37407F05391EF90E65D7410F0D08C
:0606CC0082D083D0E03271
:1007BD00C0E0C083C082D2035391EF90E65D740810
:0807CD00F0D082D083D0E032AD
:1005B800C0E0C083C08290E680E030E72085212536
:1005C800852226852682852583A37402F08529271E
:1005D800852A28852882852783A37407F05391EFFD
:0D05E80090E65D7420F0D082D083D0E03228
:01086D003258
:01086E003257
:01086F003256
:010870003255
:010871003254
:010872003253
:010873003252
:010874003251
:010875003250
:01087600324F
:01087700324E
:01087800324D
:01087900324C
:01087A00324B
:01087B00324A
:01087C003249
:01087D003248
:01087E003247
:01087F003246
:010880003245
:010881003244
:010882003243
:010883003242
:010884003241
:010885003240
:01088600323F
:01088700323E
:01088800323D
:01088900323C
:01088A00323B
:01088B00323A
:01088C003239
:01088D003238
:01088E003237
:01088F003236
:010890003235
:100600001201000200000040B414041000000102B6
:1006100000010A06000200000040010009022E004D
:1006200001010080320904000004FF0000000705FA
:10063000020200020007050402000200070586020C
:100640000002000705880200020009022E000101D5
:100650000080320904000004FF00000007050202C8
:100660004000000705040240000007058602400024
:10067000000705880240000004030904100343003A
:100680007900700072006500730073000E0345006E
:0C0690005A002D005500530042000000ED
:1007010090E682E030E004E020E60B90E682E03003
:10071100E119E030E71590E680E04401F07F147EB6
:0C072100001204BA90E680E054FEF022C2
:1006D20030040990E680E0440AF0800790E680E06A
:1006E2004408F07FDC7E051204BA90E65D74FFF0E8
:0F06F20090E65FF05391EF90E680E054F7F0222E
:02072D00A9071A
:10072F00AE2DAF2E8F828E83A3E064037017AD01C1
:10073F0019ED7001228F828E83E07C002FFDEC3E3D
:08074F00FEAF0580DFE4FEFFB0
:01075700227F
:1007800090E682E044C0F090E681F04387010000EB
:040790000000002243
:1004BA008E188F1990E600E054187012E51924017D
:1004CA00FFE43518C313F518EF13F519801590E6F4
:1004DA0000E05418FFBF100BE51925E0F519E518DF
:1004EA0033F518E5191519AE18700215184E60057E
:0604FA0012079480EE22BF
:100794007400F58690FDA57C05A3E582458370F978
:0107A4002232
:03004300020500B3
:03005300020500A3
:100500000207A5000207EB000207D5000207BD00A5
:1005100002069C000205B80002086D0002086E0089
:1005200002086F00020870000208710002087200E1
:1005300002087300020874000208750002087600C1
:100540000208770002086E000208780002087900AD
:1005500002087A0002087B0002087C0002087D0085
:1005600002087E0002086E0002086E0002086E009B
:1005700002087F0002088000020881000208820051
:100580000208830002088400020885000208860031
:1005900002088700020888000208890002088A0011
:1005A00002088B0002088C0002088D0002088E00F1
:0805B00002088F000208900010
:03000000020836BD
:0C083600787FE4F6D8FD75812E0202B830
:10082500EB9FF5F0EA9E42F0E99D42F0E89C45F029
:0108350022A0
:00000001FF
